{
  "transactions": [
    {
      "hash": "0x56fb239d0083c7df72ef0ca00cda3e069447d341761c7adc1b879fd46cd9bd9d",
      "transactionType": "CALL",
      "contractName": "LinkToken",
      "contractAddress": "0x779877a7b0d9e8603169ddbd7836e478b4624789",
      "function": "transferAndCall(address,uint256,bytes)",
      "arguments": [
        "0x9DdfaCa8183c41ad55329BdeeD9F6A8d53168B1B",
        "3",
        "0xce334f0d86c3e19118da8c2d4d0307416651ef77226128891ec377da2065fbe9"
      ],
      "transaction": {
        "from": "0x5c34c9b22349e1478677f19bcf50ef7fb6b9e43a",
        "to": "0x779877a7b0d9e8603169ddbd7836e478b4624789",
        "gas": "0x15ff7",
        "value": "0x0",
        "input": "0x4000aea00000000000000000000000009ddfaca8183c41ad55329bdeed9f6a8d53168b1b000000000000000000000000000000000000000000000000000000000000000300000000000000000000000000000000000000000000000000000000000000600000000000000000000000000000000000000000000000000000000000000020ce334f0d86c3e19118da8c2d4d0307416651ef77226128891ec377da2065fbe9",
        "nonce": "0x7",
        "chainId": "0xaa36a7"
      },
      "additionalContracts": [],
      "isFixedGasLimit": false
    }
  ],
  "receipts": [
    {
      "status": "0x1",
      "cumulativeGasUsed": "0x159bd80",
      "logs": [
        {
          "address": "0x779877a7b0d9e8603169ddbd7836e478b4624789",
          "topics": [
            "0xddf252ad1be2c89b69c2b068fc378daa952ba7f163c4a11628f55a4df523b3ef",
            "0x0000000000000000000000005c34c9b22349e1478677f19bcf50ef7fb6b9e43a",
            "0x0000000000000000000000009ddfaca8183c41ad55329bdeed9f6a8d53168b1b"
          ],
          "data": "0x0000000000000000000000000000000000000000000000000000000000000003",
          "blockHash": "0x4644d8bcb88c0af3a3f0ea4f102e5075b2a7012f8f232c03c93c1bfa0cbadd10",
          "blockNumber": "0x65b6f2",
          "transactionHash": "0x56fb239d0083c7df72ef0ca00cda3e069447d341761c7adc1b879fd46cd9bd9d",
          "transactionIndex": "0x98",
          "logIndex": "0xcb",
          "removed": false
        },
        {
          "address": "0x779877a7b0d9e8603169ddbd7836e478b4624789",
          "topics": [
            "0xe19260aff97b920c7df27010903aeb9c8d2be5d310a2c67824cf3f15396e4c16",
            "0x0000000000000000000000005c34c9b22349e1478677f19bcf50ef7fb6b9e43a",
            "0x0000000000000000000000009ddfaca8183c41ad55329bdeed9f6a8d53168b1b"
          ],
          "data": "0x000000000000000000000000000000000000000000000000000000000000000300000000000000000000000000000000000000000000000000000000000000400000000000000000000000000000000000000000000000000000000000000020ce334f0d86c3e19118da8c2d4d0307416651ef77226128891ec377da2065fbe9",
          "blockHash": "0x4644d8bcb88c0af3a3f0ea4f102e5075b2a7012f8f232c03c93c1bfa0cbadd10",
          "blockNumber": "0x65b6f2",
          "transactionHash": "0x56fb239d0083c7df72ef0ca00cda3e069447d341761c7adc1b879fd46cd9bd9d",
          "transactionIndex": "0x98",
          "logIndex": "0xcc",
          "removed": false
        },
        {
          "address": "0x9ddfaca8183c41ad55329bdeed9f6a8d53168b1b",
          "topics": [
            "0x1ced9348ff549fceab2ac57cd3a9de38edaaab274b725ee82c23e8fc8c4eec7a",
            "0xce334f0d86c3e19118da8c2d4d0307416651ef77226128891ec377da2065fbe9"
          ],
          "data": "0x00000000000000000000000000000000000000000000000029a2241af62c000300000000000000000000000000000000000000000000000029a2241af62c0006",
          "blockHash": "0x4644d8bcb88c0af3a3f0ea4f102e5075b2a7012f8f232c03c93c1bfa0cbadd10",
          "blockNumber": "0x65b6f2",
          "transactionHash": "0x56fb239d0083c7df72ef0ca00cda3e069447d341761c7adc1b879fd46cd9bd9d",
          "transactionIndex": "0x98",
          "logIndex": "0xcd",
          "removed": false
        }
      ],
      "logsBloom": "0x00000004000000000000000000000000000000000020000000000000020000000004000000000000000000000000000000000000000000000000000000000000000000000040000000000008000080000000000000000000000020000020000008000000000000000000000000000000000000000000000000000010000040000000100000000000000000010000800000000020000000000000000000000000000000000000000000000000010000000000000000000000000004000000000000000002000000000000000000000001000000000000000100000000000000000010000000000000800000000000000000000000040000000000000000000000",
      "type": "0x2",
      "transactionHash": "0x56fb239d0083c7df72ef0ca00cda3e069447d341761c7adc1b879fd46cd9bd9d",
      "transactionIndex": "0x98",
      "blockHash": "0x4644d8bcb88c0af3a3f0ea4f102e5075b2a7012f8f232c03c93c1bfa0cbadd10",
      "blockNumber": "0x65b6f2",
      "gasUsed": "0xf0a9",
      "effectiveGasPrice": "0x10bd041090",
      "from": "0x5c34c9b22349e1478677f19bcf50ef7fb6b9e43a",
      "to": "0x779877a7b0d9e8603169ddbd7836e478b4624789",
      "contractAddress": null
    }
  ],
  "libraries": [],
  "pending": [],
  "returns": {},
  "timestamp": 1725961480,
  "chain": 11155111,
  "commit": "01f6b92"
}